S01700004763634170706C69636174696F6E392E7372656353
S113000045C000004BC0000049C0000047C00000CC
S113001045C0000043C0000041C000003FC00000D4
S11300203DC000003BC0000039C0000037C00000E4
S113003035C0000033C0000031C000002FC00000F4
S11300402DC000002BC0000029C0000027C0000004
S113005025C0000023C0000021C000001FC0000014
S11300601DC000001BC0000019C0000017C0000024
S113007015C0000013C0000011C000000FC0000034
S11300800DC000000BC0000009C0000011241FBEF9
S1130090CFEFD0E1DEBFCDBF10D072C0B1CF8FB5EE
S11300A0826A8FBD8EB589618EBD81B3806681BB46
S11300B088EE93E097BD86BD089588E087BBBA9823
S11300C0B898B99880E48DB98DE68DB98FEF84BB6B
S11300D015BAE5DFEFE7F0E0C7EED3E0EC9FC0012F
S11300E0ED9F900DFC9F900D1124BF0122D09B0128
S11300F0EC9FC001ED9F900DFC9F900D1124BF015A
S113010018D0779BFECF3BBD2ABD909A9198929AC6
S1130110939879BD68BD949A9598969A97984FE369
S11301208DE093E0415080409040E1F700C0000032
S1130130E8CF97FB072E16F4009406D077FD08D07D
S11301400BD007FC05D03EF4909581959F4F089500
S1130150709561957F4F0895AA1BBB1B51E107C0A1
S1130160AA1FBB1FA617B70710F0A61BB70B881F43
S1130170991F5A95A9F780959095BC01CD010895D2
S1070180F894FFCF1D
S9030000FC
